{
  "_format": "hh-sol-artifact-1",
  "contractName": "Bank",
  "sourceName": "contracts/BankContract.sol",
  "abi": [
    {
      "inputs": [],
      "name": "depositMoney",
      "outputs": [],
      "stateMutability": "payable",
      "type": "function"
    },
    {
      "inputs": [
        {
          "internalType": "string",
          "name": "_name",
          "type": "string"
        }
      ],
      "name": "setBankName",
      "outputs": [],
      "stateMutability": "nonpayable",
      "type": "function"
    },
    {
      "inputs": [],
      "stateMutability": "nonpayable",
      "type": "constructor"
    },
    {
      "inputs": [
        {
          "internalType": "address payable",
          "name": "_to",
          "type": "address"
        },
        {
          "internalType": "uint256",
          "name": "_total",
          "type": "uint256"
        }
      ],
      "name": "withDrawMoney",
      "outputs": [],
      "stateMutability": "payable",
      "type": "function"
    },
    {
      "inputs": [],
      "name": "bankName",
      "outputs": [
        {
          "internalType": "string",
          "name": "",
          "type": "string"
        }
      ],
      "stateMutability": "view",
      "type": "function"
    },
    {
      "inputs": [],
      "name": "bankOwner",
      "outputs": [
        {
          "internalType": "address",
          "name": "",
          "type": "address"
        }
      ],
      "stateMutability": "view",
      "type": "function"
    },
    {
      "inputs": [
        {
          "internalType": "address",
          "name": "",
          "type": "address"
        }
      ],
      "name": "customerBalance",
      "outputs": [
        {
          "internalType": "uint256",
          "name": "",
          "type": "uint256"
        }
      ],
      "stateMutability": "view",
      "type": "function"
    },
    {
      "inputs": [],
      "name": "getBankBalance",
      "outputs": [
        {
          "internalType": "uint256",
          "name": "",
          "type": "uint256"
        }
      ],
      "stateMutability": "view",
      "type": "function"
    },
    {
      "inputs": [],
      "name": "getCustomerBalance",
      "outputs": [
        {
          "internalType": "uint256",
          "name": "",
          "type": "uint256"
        }
      ],
      "stateMutability": "view",
      "type": "function"
    }
  ],
  "bytecode": "0x6080604052348015600f57600080fd5b50336000806101000a81548173ffffffffffffffffffffffffffffffffffffffff021916908373ffffffffffffffffffffffffffffffffffffffff160217905550610f898061005f6000396000f3fe60806040526004361061007b5760003560e01c80637b83b50b1161004e5780637b83b50b1461011b578063a853409a14610146578063b39d7b7c14610171578063e147aaa71461018d5761007b565b806316c05aa21461008057806327d358011461008a57806337ebe47b146100b557806370142690146100f2575b600080fd5b6100886101b8565b005b34801561009657600080fd5b5061009f610253565b6040516100ac919061064f565b60405180910390f35b3480156100c157600080fd5b506100dc60048036038101906100d791906106e3565b6102e1565b6040516100e99190610729565b60405180910390f35b3480156100fe57600080fd5b5061011960048036038101906101149190610879565b6102f9565b005b34801561012757600080fd5b5061013061039a565b60405161013d9190610729565b60405180910390f35b34801561015257600080fd5b5061015b610431565b6040516101689190610729565b60405180910390f35b61018b6004803603810190610186919061092c565b610478565b005b34801561019957600080fd5b506101a261059b565b6040516101af919061097b565b60405180910390f35b600034036101fb576040517f08c379a00000000000000000000000000000000000000000000000000000000081526004016101f290610a08565b60405180910390fd5b34600260003373ffffffffffffffffffffffffffffffffffffffff1673ffffffffffffffffffffffffffffffffffffffff168152602001908152602001600020600082825461024a9190610a57565b92505081905550565b6001805461026090610aba565b80601f016020809104026020016040519081016040528092919081815260200182805461028c90610aba565b80156102d95780601f106102ae576101008083540402835291602001916102d9565b820191906000526020600020905b8154815290600101906020018083116102bc57829003601f168201915b505050505081565b60026020528060005260406000206000915090505481565b60008054906101000a900473ffffffffffffffffffffffffffffffffffffffff1673ffffffffffffffffffffffffffffffffffffffff163373ffffffffffffffffffffffffffffffffffffffff1614610387576040517f08c379a000000000000000000000000000000000000000000000000000000000815260040161037e90610b5d565b60405180910390fd5b80600190816103969190610d29565b5050565b60008060009054906101000a900473ffffffffffffffffffffffffffffffffffffffff1673ffffffffffffffffffffffffffffffffffffffff163373ffffffffffffffffffffffffffffffffffffffff161461042b576040517f08c379a000000000000000000000000000000000000000000000000000000000815260040161042290610e6d565b60405180910390fd5b47905090565b6000600260003373ffffffffffffffffffffffffffffffffffffffff1673ffffffffffffffffffffffffffffffffffffffff16815260200190815260200160002054905090565b600260003373ffffffffffffffffffffffffffffffffffffffff1673ffffffffffffffffffffffffffffffffffffffff168152602001908152602001600020548111156104fa576040517f08c379a00000000000000000000000000000000000000000000000000000000081526004016104f190610eff565b60405180910390fd5b80600260003373ffffffffffffffffffffffffffffffffffffffff1673ffffffffffffffffffffffffffffffffffffffff16815260200190815260200160002060008282546105499190610f1f565b925050819055508173ffffffffffffffffffffffffffffffffffffffff166108fc829081150290604051600060405180830381858888f19350505050158015610596573d6000803e3d6000fd5b505050565b60008054906101000a900473ffffffffffffffffffffffffffffffffffffffff1681565b600081519050919050565b600082825260208201905092915050565b60005b838110156105f95780820151818401526020810190506105de565b60008484015250505050565b6000601f19601f8301169050919050565b6000610621826105bf565b61062b81856105ca565b935061063b8185602086016105db565b61064481610605565b840191505092915050565b600060208201905081810360008301526106698184610616565b905092915050565b6000604051905090565b600080fd5b600080fd5b600073ffffffffffffffffffffffffffffffffffffffff82169050919050565b60006106b082610685565b9050919050565b6106c0816106a5565b81146106cb57600080fd5b50565b6000813590506106dd816106b7565b92915050565b6000602082840312156106f9576106f861067b565b5b6000610707848285016106ce565b91505092915050565b6000819050919050565b61072381610710565b82525050565b600060208201905061073e600083018461071a565b92915050565b600080fd5b600080fd5b7f4e487b7100000000000000000000000000000000000000000000000000000000600052604160045260246000fd5b61078682610605565b810181811067ffffffffffffffff821117156107a5576107a461074e565b5b80604052505050565b60006107b8610671565b90506107c4828261077d565b919050565b600067ffffffffffffffff8211156107e4576107e361074e565b5b6107ed82610605565b9050602081019050919050565b82818337600083830152505050565b600061081c610817846107c9565b6107ae565b90508281526020810184848401111561083857610837610749565b5b6108438482856107fa565b509392505050565b600082601f8301126108605761085f610744565b5b8135610870848260208601610809565b91505092915050565b60006020828403121561088f5761088e61067b565b5b600082013567ffffffffffffffff8111156108ad576108ac610680565b5b6108b98482850161084b565b91505092915050565b60006108cd82610685565b9050919050565b6108dd816108c2565b81146108e857600080fd5b50565b6000813590506108fa816108d4565b92915050565b61090981610710565b811461091457600080fd5b50565b60008135905061092681610900565b92915050565b600080604083850312156109435761094261067b565b5b6000610951858286016108eb565b925050602061096285828601610917565b9150509250929050565b610975816106a5565b82525050565b6000602082019050610990600083018461096c565b92915050565b7f596f75206e65656420746f206465706f73697420736f6d6520616d6f756e742060008201527f6f66206d6f6e6579210000000000000000000000000000000000000000000000602082015250565b60006109f26029836105ca565b91506109fd82610996565b604082019050919050565b60006020820190508181036000830152610a21816109e5565b9050919050565b7f4e487b7100000000000000000000000000000000000000000000000000000000600052601160045260246000fd5b6000610a6282610710565b9150610a6d83610710565b9250828201905080821115610a8557610a84610a28565b5b92915050565b7f4e487b7100000000000000000000000000000000000000000000000000000000600052602260045260246000fd5b60006002820490506001821680610ad257607f821691505b602082108103610ae557610ae4610a8b565b5b50919050565b7f596f75206d75737420626520746865206f776e657220746f207365742074686560008201527f206e616d65206f66207468652062616e6b000000000000000000000000000000602082015250565b6000610b476031836105ca565b9150610b5282610aeb565b604082019050919050565b60006020820190508181036000830152610b7681610b3a565b9050919050565b60008190508160005260206000209050919050565b60006020601f8301049050919050565b600082821b905092915050565b600060088302610bdf7fffffffffffffffffffffffffffffffffffffffffffffffffffffffffffffffff82610ba2565b610be98683610ba2565b95508019841693508086168417925050509392505050565b6000819050919050565b6000610c26610c21610c1c84610710565b610c01565b610710565b9050919050565b6000819050919050565b610c4083610c0b565b610c54610c4c82610c2d565b848454610baf565b825550505050565b600090565b610c69610c5c565b610c74818484610c37565b505050565b5b81811015610c9857610c8d600082610c61565b600181019050610c7a565b5050565b601f821115610cdd57610cae81610b7d565b610cb784610b92565b81016020851015610cc6578190505b610cda610cd285610b92565b830182610c79565b50505b505050565b600082821c905092915050565b6000610d0060001984600802610ce2565b1980831691505092915050565b6000610d198383610cef565b9150826002028217905092915050565b610d32826105bf565b67ffffffffffffffff811115610d4b57610d4a61074e565b5b610d558254610aba565b610d60828285610c9c565b600060209050601f831160018114610d935760008415610d81578287015190505b610d8b8582610d0d565b865550610df3565b601f198416610da186610b7d565b60005b82811015610dc957848901518255600182019150602085019450602081019050610da4565b86831015610de65784890151610de2601f891682610cef565b8355505b6001600288020188555050505b505050505050565b7f596f75206d75737420626520746865206f776e6572206f66207468652062616e60008201527f6b20746f2073656520616c6c2062616c616e6365732e00000000000000000000602082015250565b6000610e576036836105ca565b9150610e6282610dfb565b604082019050919050565b60006020820190508181036000830152610e8681610e4a565b9050919050565b7f596f75206861766520696e7375666669656e742066756e647320746f2077697460008201527f6864726177000000000000000000000000000000000000000000000000000000602082015250565b6000610ee96025836105ca565b9150610ef482610e8d565b604082019050919050565b60006020820190508181036000830152610f1881610edc565b9050919050565b6000610f2a82610710565b9150610f3583610710565b9250828203905081811115610f4d57610f4c610a28565b5b9291505056fea2646970667358221220469116c1d50c6e54bcf343ff43686da5622823e0f01bb6c445de37db8fa7f84464736f6c63430008190033",
  "deployedBytecode": "0x60806040526004361061007b5760003560e01c80637b83b50b1161004e5780637b83b50b1461011b578063a853409a14610146578063b39d7b7c14610171578063e147aaa71461018d5761007b565b806316c05aa21461008057806327d358011461008a57806337ebe47b146100b557806370142690146100f2575b600080fd5b6100886101b8565b005b34801561009657600080fd5b5061009f610254565b6040516100ac91906109c1565b60405180910390f35b3480156100c157600080fd5b506100dc60048036038101906100d79190610711565b6102e2565b6040516100e99190610a63565b60405180910390f35b3480156100fe57600080fd5b5061011960048036038101906101149190610776565b6102fa565b005b34801561012757600080fd5b506101306103a2565b60405161013d9190610a63565b60405180910390f35b34801561015257600080fd5b5061015b610439565b6040516101689190610a63565b60405180910390f35b61018b6004803603810190610186919061073a565b610480565b005b34801561019957600080fd5b506101a26105a3565b6040516101af91906109a6565b60405180910390f35b60003414156101fc576040517f08c379a00000000000000000000000000000000000000000000000000000000081526004016101f390610a03565b60405180910390fd5b34600260003373ffffffffffffffffffffffffffffffffffffffff1673ffffffffffffffffffffffffffffffffffffffff168152602001908152602001600020600082825461024b9190610afb565b92505081905550565b6001805461026190610c15565b80601f016020809104026020016040519081016040528092919081815260200182805461028d90610c15565b80156102da5780601f106102af576101008083540402835291602001916102da565b820191906000526020600020905b8154815290600101906020018083116102bd57829003601f168201915b505050505081565b60026020528060005260406000206000915090505481565b60008054906101000a900473ffffffffffffffffffffffffffffffffffffffff1673ffffffffffffffffffffffffffffffffffffffff163373ffffffffffffffffffffffffffffffffffffffff1614610388576040517f08c379a000000000000000000000000000000000000000000000000000000000815260040161037f90610a23565b60405180910390fd5b806001908051906020019061039e9291906105c7565b5050565b60008060009054906101000a900473ffffffffffffffffffffffffffffffffffffffff1673ffffffffffffffffffffffffffffffffffffffff163373ffffffffffffffffffffffffffffffffffffffff1614610433576040517f08c379a000000000000000000000000000000000000000000000000000000000815260040161042a90610a43565b60405180910390fd5b47905090565b6000600260003373ffffffffffffffffffffffffffffffffffffffff1673ffffffffffffffffffffffffffffffffffffffff16815260200190815260200160002054905090565b600260003373ffffffffffffffffffffffffffffffffffffffff1673ffffffffffffffffffffffffffffffffffffffff16815260200190815260200160002054811115610502576040517f08c379a00000000000000000000000000000000000000000000000000000000081526004016104f9906109e3565b60405180910390fd5b80600260003373ffffffffffffffffffffffffffffffffffffffff1673ffffffffffffffffffffffffffffffffffffffff16815260200190815260200160002060008282546105519190610b51565b925050819055508173ffffffffffffffffffffffffffffffffffffffff166108fc829081150290604051600060405180830381858888f1935050505015801561059e573d6000803e3d6000fd5b505050565b60008054906101000a900473ffffffffffffffffffffffffffffffffffffffff1681565b8280546105d390610c15565b90600052602060002090601f0160209004810192826105f5576000855561063c565b82601f1061060e57805160ff191683800117855561063c565b8280016001018555821561063c579182015b8281111561063b578251825591602001919060010190610620565b5b509050610649919061064d565b5090565b5b8082111561066657600081600090555060010161064e565b5090565b600061067d61067884610aaf565b610a7e565b90508281526020810184848401111561069557600080fd5b6106a0848285610bd3565b509392505050565b6000813590506106b781610ce5565b92915050565b6000813590506106cc81610cfc565b92915050565b600082601f8301126106e357600080fd5b81356106f384826020860161066a565b91505092915050565b60008135905061070b81610d13565b92915050565b60006020828403121561072357600080fd5b6000610731848285016106a8565b91505092915050565b6000806040838503121561074d57600080fd5b600061075b858286016106bd565b925050602061076c858286016106fc565b9150509250929050565b60006020828403121561078857600080fd5b600082013567ffffffffffffffff8111156107a257600080fd5b6107ae848285016106d2565b91505092915050565b6107c081610b85565b82525050565b60006107d182610adf565b6107db8185610aea565b93506107eb818560208601610be2565b6107f481610cd4565b840191505092915050565b600061080c602583610aea565b91507f596f75206861766520696e7375666669656e742066756e647320746f2077697460008301527f68647261770000000000000000000000000000000000000000000000000000006020830152604082019050919050565b6000610872602983610aea565b91507f596f75206e65656420746f206465706f73697420736f6d6520616d6f756e742060008301527f6f66206d6f6e65792100000000000000000000000000000000000000000000006020830152604082019050919050565b60006108d8603183610aea565b91507f596f75206d75737420626520746865206f776e657220746f207365742074686560008301527f206e616d65206f66207468652062616e6b0000000000000000000000000000006020830152604082019050919050565b600061093e603683610aea565b91507f596f75206d75737420626520746865206f776e6572206f66207468652062616e60008301527f6b20746f2073656520616c6c2062616c616e6365732e000000000000000000006020830152604082019050919050565b6109a081610bc9565b82525050565b60006020820190506109bb60008301846107b7565b92915050565b600060208201905081810360008301526109db81846107c6565b905092915050565b600060208201905081810360008301526109fc816107ff565b9050919050565b60006020820190508181036000830152610a1c81610865565b9050919050565b60006020820190508181036000830152610a3c816108cb565b9050919050565b60006020820190508181036000830152610a5c81610931565b9050919050565b6000602082019050610a786000830184610997565b92915050565b6000604051905081810181811067ffffffffffffffff82111715610aa557610aa4610ca5565b5b8060405250919050565b600067ffffffffffffffff821115610aca57610ac9610ca5565b5b601f19601f8301169050602081019050919050565b600081519050919050565b600082825260208201905092915050565b6000610b0682610bc9565b9150610b1183610bc9565b9250827fffffffffffffffffffffffffffffffffffffffffffffffffffffffffffffffff03821115610b4657610b45610c47565b5b828201905092915050565b6000610b5c82610bc9565b9150610b6783610bc9565b925082821015610b7a57610b79610c47565b5b828203905092915050565b6000610b9082610ba9565b9050919050565b6000610ba282610ba9565b9050919050565b600073ffffffffffffffffffffffffffffffffffffffff82169050919050565b6000819050919050565b82818337600083830152505050565b60005b83811015610c00578082015181840152602081019050610be5565b83811115610c0f576000848401525b50505050565b60006002820490506001821680610c2d57607f821691505b60208210811415610c4157610c40610c76565b5b50919050565b7f4e487b7100000000000000000000000000000000000000000000000000000000600052601160045260246000fd5b7f4e487b7100000000000000000000000000000000000000000000000000000000600052602260045260246000fd5b7f4e487b7100000000000000000000000000000000000000000000000000000000600052604160045260246000fd5b6000601f19601f8301169050919050565b610cee81610b85565b8114610cf957600080fd5b50565b610d0581610b97565b8114610d1057600080fd5b50565b610d1c81610bc9565b8114610d2757600080fd5b5056fea26469706673582212203a2b8c7581aec32410a3e8362192fe54d4ea5f25da0c37bd52473eec69bcc81664736f6c63430008000033",
  "linkReferences": {},
  "deployedLinkReferences": {}
}